{
    "contractName": "MyNFT",
    "abi": [
        {
            "inputs": [],
            "stateMutability": "nonpayable",
            "type": "constructor"
        },
        {
            "anonymous": false,
            "inputs": [
                {
                    "indexed": true,
                    "internalType": "address",
                    "name": "owner",
                    "type": "address"
                },
                {
                    "indexed": true,
                    "internalType": "address",
                    "name": "approved",
                    "type": "address"
                },
                {
                    "indexed": true,
                    "internalType": "uint256",
                    "name": "tokenId",
                    "type": "uint256"
                }
            ],
            "name": "Approval",
            "type": "event"
        },
        {
            "anonymous": false,
            "inputs": [
                {
                    "indexed": true,
                    "internalType": "address",
                    "name": "owner",
                    "type": "address"
                },
                {
                    "indexed": true,
                    "internalType": "address",
                    "name": "operator",
                    "type": "address"
                },
                {
                    "indexed": false,
                    "internalType": "bool",
                    "name": "approved",
                    "type": "bool"
                }
            ],
            "name": "ApprovalForAll",
            "type": "event"
        },
        {
            "anonymous": false,
            "inputs": [
                {
                    "indexed": true,
                    "internalType": "address",
                    "name": "previousOwner",
                    "type": "address"
                },
                {
                    "indexed": true,
                    "internalType": "address",
                    "name": "newOwner",
                    "type": "address"
                }
            ],
            "name": "OwnershipTransferred",
            "type": "event"
        },
        {
            "anonymous": false,
            "inputs": [
                {
                    "indexed": true,
                    "internalType": "address",
                    "name": "from",
                    "type": "address"
                },
                {
                    "indexed": true,
                    "internalType": "address",
                    "name": "to",
                    "type": "address"
                },
                {
                    "indexed": true,
                    "internalType": "uint256",
                    "name": "tokenId",
                    "type": "uint256"
                }
            ],
            "name": "Transfer",
            "type": "event"
        },
        {
            "inputs": [
                {
                    "internalType": "address",
                    "name": "to",
                    "type": "address"
                },
                {
                    "internalType": "uint256",
                    "name": "tokenId",
                    "type": "uint256"
                }
            ],
            "name": "approve",
            "outputs": [],
            "stateMutability": "nonpayable",
            "type": "function"
        },
        {
            "inputs": [
                {
                    "internalType": "address",
                    "name": "owner",
                    "type": "address"
                }
            ],
            "name": "balanceOf",
            "outputs": [
                {
                    "internalType": "uint256",
                    "name": "",
                    "type": "uint256"
                }
            ],
            "stateMutability": "view",
            "type": "function"
        },
        {
            "inputs": [
                {
                    "internalType": "uint256",
                    "name": "tokenId",
                    "type": "uint256"
                }
            ],
            "name": "getApproved",
            "outputs": [
                {
                    "internalType": "address",
                    "name": "",
                    "type": "address"
                }
            ],
            "stateMutability": "view",
            "type": "function"
        },
        {
            "inputs": [
                {
                    "internalType": "uint256",
                    "name": "tokenId",
                    "type": "uint256"
                }
            ],
            "name": "getNFTInfo",
            "outputs": [
                {
                    "internalType": "string",
                    "name": "name",
                    "type": "string"
                },
                {
                    "internalType": "string",
                    "name": "description",
                    "type": "string"
                }
            ],
            "stateMutability": "view",
            "type": "function"
        },
        {
            "inputs": [
                {
                    "internalType": "address",
                    "name": "owner",
                    "type": "address"
                },
                {
                    "internalType": "address",
                    "name": "operator",
                    "type": "address"
                }
            ],
            "name": "isApprovedForAll",
            "outputs": [
                {
                    "internalType": "bool",
                    "name": "",
                    "type": "bool"
                }
            ],
            "stateMutability": "view",
            "type": "function"
        },
        {
            "inputs": [
                {
                    "internalType": "address",
                    "name": "recipient",
                    "type": "address"
                },
                {
                    "internalType": "uint256",
                    "name": "tokenId",
                    "type": "uint256"
                },
                {
                    "internalType": "string",
                    "name": "name",
                    "type": "string"
                },
                {
                    "internalType": "string",
                    "name": "description",
                    "type": "string"
                }
            ],
            "name": "mintNFT",
            "outputs": [],
            "stateMutability": "nonpayable",
            "type": "function"
        },
        {
            "inputs": [],
            "name": "name",
            "outputs": [
                {
                    "internalType": "string",
                    "name": "",
                    "type": "string"
                }
            ],
            "stateMutability": "view",
            "type": "function"
        },
        {
            "inputs": [],
            "name": "owner",
            "outputs": [
                {
                    "internalType": "address",
                    "name": "",
                    "type": "address"
                }
            ],
            "stateMutability": "view",
            "type": "function"
        },
        {
            "inputs": [
                {
                    "internalType": "uint256",
                    "name": "tokenId",
                    "type": "uint256"
                }
            ],
            "name": "ownerOf",
            "outputs": [
                {
                    "internalType": "address",
                    "name": "",
                    "type": "address"
                }
            ],
            "stateMutability": "view",
            "type": "function"
        },
        {
            "inputs": [],
            "name": "renounceOwnership",
            "outputs": [],
            "stateMutability": "nonpayable",
            "type": "function"
        },
        {
            "inputs": [
                {
                    "internalType": "address",
                    "name": "from",
                    "type": "address"
                },
                {
                    "internalType": "address",
                    "name": "to",
                    "type": "address"
                },
                {
                    "internalType": "uint256",
                    "name": "tokenId",
                    "type": "uint256"
                }
            ],
            "name": "safeTransferFrom",
            "outputs": [],
            "stateMutability": "nonpayable",
            "type": "function"
        },
        {
            "inputs": [
                {
                    "internalType": "address",
                    "name": "from",
                    "type": "address"
                },
                {
                    "internalType": "address",
                    "name": "to",
                    "type": "address"
                },
                {
                    "internalType": "uint256",
                    "name": "tokenId",
                    "type": "uint256"
                },
                {
                    "internalType": "bytes",
                    "name": "data",
                    "type": "bytes"
                }
            ],
            "name": "safeTransferFrom",
            "outputs": [],
            "stateMutability": "nonpayable",
            "type": "function"
        },
        {
            "inputs": [
                {
                    "internalType": "address",
                    "name": "operator",
                    "type": "address"
                },
                {
                    "internalType": "bool",
                    "name": "approved",
                    "type": "bool"
                }
            ],
            "name": "setApprovalForAll",
            "outputs": [],
            "stateMutability": "nonpayable",
            "type": "function"
        },
        {
            "inputs": [
                {
                    "internalType": "bytes4",
                    "name": "interfaceId",
                    "type": "bytes4"
                }
            ],
            "name": "supportsInterface",
            "outputs": [
                {
                    "internalType": "bool",
                    "name": "",
                    "type": "bool"
                }
            ],
            "stateMutability": "view",
            "type": "function"
        },
        {
            "inputs": [],
            "name": "symbol",
            "outputs": [
                {
                    "internalType": "string",
                    "name": "",
                    "type": "string"
                }
            ],
            "stateMutability": "view",
            "type": "function"
        },
        {
            "inputs": [
                {
                    "internalType": "uint256",
                    "name": "index",
                    "type": "uint256"
                }
            ],
            "name": "tokenByIndex",
            "outputs": [
                {
                    "internalType": "uint256",
                    "name": "",
                    "type": "uint256"
                }
            ],
            "stateMutability": "view",
            "type": "function"
        },
        {
            "inputs": [
                {
                    "internalType": "address",
                    "name": "owner",
                    "type": "address"
                },
                {
                    "internalType": "uint256",
                    "name": "index",
                    "type": "uint256"
                }
            ],
            "name": "tokenOfOwnerByIndex",
            "outputs": [
                {
                    "internalType": "uint256",
                    "name": "",
                    "type": "uint256"
                }
            ],
            "stateMutability": "view",
            "type": "function"
        },
        {
            "inputs": [
                {
                    "internalType": "uint256",
                    "name": "tokenId",
                    "type": "uint256"
                }
            ],
            "name": "tokenURI",
            "outputs": [
                {
                    "internalType": "string",
                    "name": "",
                    "type": "string"
                }
            ],
            "stateMutability": "view",
            "type": "function"
        },
        {
            "inputs": [],
            "name": "totalSupply",
            "outputs": [
                {
                    "internalType": "uint256",
                    "name": "",
                    "type": "uint256"
                }
            ],
            "stateMutability": "view",
            "type": "function"
        },
        {
            "inputs": [
                {
                    "internalType": "address",
                    "name": "from",
                    "type": "address"
                },
                {
                    "internalType": "address",
                    "name": "to",
                    "type": "address"
                },
                {
                    "internalType": "uint256",
                    "name": "tokenId",
                    "type": "uint256"
                }
            ],
            "name": "transferFrom",
            "outputs": [],
            "stateMutability": "nonpayable",
            "type": "function"
        },
        {
            "inputs": [
                {
                    "internalType": "address",
                    "name": "newOwner",
                    "type": "address"
                }
            ],
            "name": "transferOwnership",
            "outputs": [],
            "stateMutability": "nonpayable",
            "type": "function"
        }
    ],
    "bytecode": "60806040523480156200001157600080fd5b5060405180604001604052806005815260200164135e53919560da1b815250604051806040016040528060048152602001631353919560e21b81525081600090816200005e91906200018b565b5060016200006d82826200018b565b5050506200008a620000846200009060201b60201c565b62000094565b62000257565b3390565b600a80546001600160a01b038381166001600160a01b0319831681179093556040519116919082907f8be0079c531659141344cd1fd0a4f28419497f9722a3daafe3b4186f6b6457e090600090a35050565b634e487b7160e01b600052604160045260246000fd5b600181811c908216806200011157607f821691505b6020821081036200013257634e487b7160e01b600052602260045260246000fd5b50919050565b601f8211156200018657600081815260208120601f850160051c81016020861015620001615750805b601f850160051c820191505b8181101562000182578281556001016200016d565b5050505b505050565b81516001600160401b03811115620001a757620001a7620000e6565b620001bf81620001b88454620000fc565b8462000138565b602080601f831160018114620001f75760008415620001de5750858301515b600019600386901b1c1916600185901b17855562000182565b600085815260208120601f198616915b82811015620002285788860151825594840194600190910190840162000207565b5085821015620002475787850151600019600388901b60f8161c191681555b5050505050600190811b01905550565b611d1a80620002676000396000f3fe608060405234801561001057600080fd5b50600436106101375760003560e01c806370a08231116100b8578063a22cb4651161007c578063a22cb46514610271578063b88d4fde14610284578063c87b56dd14610297578063d188929f146102aa578063e985e9c5146102cb578063f2fde38b1461030757600080fd5b806370a082311461022a578063715018a61461023d5780638da5cb5b1461024557806395d89b41146102565780639d615ae51461025e57600080fd5b806323b872dd116100ff57806323b872dd146101cb5780632f745c59146101de57806342842e0e146101f15780634f6ccce7146102045780636352211e1461021757600080fd5b806301ffc9a71461013c57806306fdde0314610164578063081812fc14610179578063095ea7b3146101a457806318160ddd146101b9575b600080fd5b61014f61014a366004611675565b61031a565b60405190151581526020015b60405180910390f35b61016c610345565b60405161015b91906116e2565b61018c6101873660046116f5565b6103d7565b6040516001600160a01b03909116815260200161015b565b6101b76101b236600461172a565b6103fe565b005b6008545b60405190815260200161015b565b6101b76101d9366004611754565b610518565b6101bd6101ec36600461172a565b610549565b6101b76101ff366004611754565b6105df565b6101bd6102123660046116f5565b6105fa565b61018c6102253660046116f5565b61068d565b6101bd610238366004611790565b6106ed565b6101b7610773565b600a546001600160a01b031661018c565b61016c610787565b6101b761026c366004611857565b610796565b6101b761027f3660046118d5565b6107f6565b6101b7610292366004611911565b610805565b61016c6102a53660046116f5565b61083d565b6102bd6102b83660046116f5565b6108b1565b60405161015b929190611981565b61014f6102d93660046119af565b6001600160a01b03918216600090815260056020908152604080832093909416825291909152205460ff1690565b6101b7610315366004611790565b610a63565b60006001600160e01b0319821663780e9d6360e01b148061033f575061033f82610adc565b92915050565b606060008054610354906119e2565b80601f0160208091040260200160405190810160405280929190818152602001828054610380906119e2565b80156103cd5780601f106103a2576101008083540402835291602001916103cd565b820191906000526020600020905b8154815290600101906020018083116103b057829003601f168201915b5050505050905090565b60006103e282610b2c565b506000908152600460205260409020546001600160a01b031690565b60006104098261068d565b9050806001600160a01b0316836001600160a01b03160361047b5760405162461bcd60e51b815260206004820152602160248201527f4552433732313a20617070726f76616c20746f2063757272656e74206f776e656044820152603960f91b60648201526084015b60405180910390fd5b336001600160a01b0382161480610497575061049781336102d9565b6105095760405162461bcd60e51b815260206004820152603d60248201527f4552433732313a20617070726f76652063616c6c6572206973206e6f7420746f60448201527f6b656e206f776e6572206f7220617070726f76656420666f7220616c6c0000006064820152608401610472565b6105138383610b8b565b505050565b6105223382610bf9565b61053e5760405162461bcd60e51b815260040161047290611a1c565b610513838383610c78565b6000610554836106ed565b82106105b65760405162461bcd60e51b815260206004820152602b60248201527f455243373231456e756d657261626c653a206f776e657220696e646578206f7560448201526a74206f6620626f756e647360a81b6064820152608401610472565b506001600160a01b03919091166000908152600660209081526040808320938352929052205490565b61051383838360405180602001604052806000815250610805565b600061060560085490565b82106106685760405162461bcd60e51b815260206004820152602c60248201527f455243373231456e756d657261626c653a20676c6f62616c20696e646578206f60448201526b7574206f6620626f756e647360a01b6064820152608401610472565b6008828154811061067b5761067b611a69565b90600052602060002001549050919050565b6000818152600260205260408120546001600160a01b03168061033f5760405162461bcd60e51b8152602060048201526018602482015277115490cdcc8c4e881a5b9d985b1a59081d1bdad95b88125160421b6044820152606401610472565b60006001600160a01b0382166107575760405162461bcd60e51b815260206004820152602960248201527f4552433732313a2061646472657373207a65726f206973206e6f7420612076616044820152683634b21037bbb732b960b91b6064820152608401610472565b506001600160a01b031660009081526003602052604090205490565b61077b610de9565b6107856000610e43565b565b606060018054610354906119e2565b61079e610de9565b6107a88484610e95565b60408051808201825283815260208082018490526000868152600b90915291909120815181906107d89082611acd565b50602082015160018201906107ed9082611acd565b50505050505050565b61080133838361102e565b5050565b61080f3383610bf9565b61082b5760405162461bcd60e51b815260040161047290611a1c565b610837848484846110fc565b50505050565b606061084882610b2c565b600061085f60408051602081019091526000815290565b9050600081511161087f57604051806020016040528060008152506108aa565b806108898461112f565b60405160200161089a929190611b8d565b6040516020818303038152906040525b9392505050565b6060806108d5836000908152600260205260409020546001600160a01b0316151590565b6109135760405162461bcd60e51b815260206004820152600f60248201526e546f6b656e206e6f2065786973746560881b6044820152606401610472565b6000838152600b60205260408082208151808301909252805482908290610939906119e2565b80601f0160208091040260200160405190810160405280929190818152602001828054610965906119e2565b80156109b25780601f10610987576101008083540402835291602001916109b2565b820191906000526020600020905b81548152906001019060200180831161099557829003601f168201915b505050505081526020016001820180546109cb906119e2565b80601f01602080910402602001604051908101604052809291908181526020018280546109f7906119e2565b8015610a445780601f10610a1957610100808354040283529160200191610a44565b820191906000526020600020905b815481529060010190602001808311610a2757829003601f168201915b5050505050815250509050806000015181602001519250925050915091565b610a6b610de9565b6001600160a01b038116610ad05760405162461bcd60e51b815260206004820152602660248201527f4f776e61626c653a206e6577206f776e657220697320746865207a65726f206160448201526564647265737360d01b6064820152608401610472565b610ad981610e43565b50565b60006001600160e01b031982166380ac58cd60e01b1480610b0d57506001600160e01b03198216635b5e139f60e01b145b8061033f57506301ffc9a760e01b6001600160e01b031983161461033f565b6000818152600260205260409020546001600160a01b0316610ad95760405162461bcd60e51b8152602060048201526018602482015277115490cdcc8c4e881a5b9d985b1a59081d1bdad95b88125160421b6044820152606401610472565b600081815260046020526040902080546001600160a01b0319166001600160a01b0384169081179091558190610bc08261068d565b6001600160a01b03167f8c5be1e5ebec7d5bd14f71427d1e84f3dd0314c0f7b2291e5b200ac8c7c3b92560405160405180910390a45050565b600080610c058361068d565b9050806001600160a01b0316846001600160a01b03161480610c4c57506001600160a01b0380821660009081526005602090815260408083209388168352929052205460ff165b80610c705750836001600160a01b0316610c65846103d7565b6001600160a01b0316145b949350505050565b826001600160a01b0316610c8b8261068d565b6001600160a01b031614610cb15760405162461bcd60e51b815260040161047290611bbc565b6001600160a01b038216610d135760405162461bcd60e51b8152602060048201526024808201527f4552433732313a207472616e7366657220746f20746865207a65726f206164646044820152637265737360e01b6064820152608401610472565b610d2083838360016111c2565b826001600160a01b0316610d338261068d565b6001600160a01b031614610d595760405162461bcd60e51b815260040161047290611bbc565b600081815260046020908152604080832080546001600160a01b03199081169091556001600160a01b0387811680865260038552838620805460001901905590871680865283862080546001019055868652600290945282852080549092168417909155905184937fddf252ad1be2c89b69c2b068fc378daa952ba7f163c4a11628f55a4df523b3ef91a4505050565b600a546001600160a01b031633146107855760405162461bcd60e51b815260206004820181905260248201527f4f776e61626c653a2063616c6c6572206973206e6f7420746865206f776e65726044820152606401610472565b600a80546001600160a01b038381166001600160a01b0319831681179093556040519116919082907f8be0079c531659141344cd1fd0a4f28419497f9722a3daafe3b4186f6b6457e090600090a35050565b6001600160a01b038216610eeb5760405162461bcd60e51b815260206004820181905260248201527f4552433732313a206d696e7420746f20746865207a65726f20616464726573736044820152606401610472565b6000818152600260205260409020546001600160a01b031615610f505760405162461bcd60e51b815260206004820152601c60248201527f4552433732313a20746f6b656e20616c7265616479206d696e746564000000006044820152606401610472565b610f5e6000838360016111c2565b6000818152600260205260409020546001600160a01b031615610fc35760405162461bcd60e51b815260206004820152601c60248201527f4552433732313a20746f6b656e20616c7265616479206d696e746564000000006044820152606401610472565b6001600160a01b038216600081815260036020908152604080832080546001019055848352600290915280822080546001600160a01b0319168417905551839291907fddf252ad1be2c89b69c2b068fc378daa952ba7f163c4a11628f55a4df523b3ef908290a45050565b816001600160a01b0316836001600160a01b03160361108f5760405162461bcd60e51b815260206004820152601960248201527f4552433732313a20617070726f766520746f2063616c6c6572000000000000006044820152606401610472565b6001600160a01b03838116600081815260056020908152604080832094871680845294825291829020805460ff191686151590811790915591519182527f17307eab39ab6107e8899845ad3d59bd9653f200f220920489ca2b5937696c31910160405180910390a3505050565b611107848484610c78565b611113848484846112f6565b6108375760405162461bcd60e51b815260040161047290611c01565b6060600061113c836113f7565b600101905060008167ffffffffffffffff81111561115c5761115c6117ab565b6040519080825280601f01601f191660200182016040528015611186576020820181803683370190505b5090508181016020015b600019016f181899199a1a9b1b9c1cb0b131b232b360811b600a86061a8153600a850494508461119057509392505050565b60018111156112315760405162461bcd60e51b815260206004820152603560248201527f455243373231456e756d657261626c653a20636f6e7365637574697665207472604482015274185b9cd9995c9cc81b9bdd081cdd5c1c1bdc9d1959605a1b6064820152608401610472565b816001600160a01b03851661128d5761128881600880546000838152600960205260408120829055600182018355919091527ff3f7a9fe364faab93b216da50a3214154f22a0a2b415b23a84c8169e8b636ee30155565b6112b0565b836001600160a01b0316856001600160a01b0316146112b0576112b085826114cf565b6001600160a01b0384166112cc576112c78161156c565b6112ef565b846001600160a01b0316846001600160a01b0316146112ef576112ef848261161b565b5050505050565b60006001600160a01b0384163b156113ec57604051630a85bd0160e11b81526001600160a01b0385169063150b7a029061133a903390899088908890600401611c53565b6020604051808303816000875af1925050508015611375575060408051601f3d908101601f1916820190925261137291810190611c90565b60015b6113d2573d8080156113a3576040519150601f19603f3d011682016040523d82523d6000602084013e6113a8565b606091505b5080516000036113ca5760405162461bcd60e51b815260040161047290611c01565b805181602001fd5b6001600160e01b031916630a85bd0160e11b149050610c70565b506001949350505050565b60008072184f03e93ff9f4daa797ed6e38ed64bf6a1f0160401b83106114365772184f03e93ff9f4daa797ed6e38ed64bf6a1f0160401b830492506040015b6d04ee2d6d415b85acef81000000008310611462576d04ee2d6d415b85acef8100000000830492506020015b662386f26fc10000831061148057662386f26fc10000830492506010015b6305f5e1008310611498576305f5e100830492506008015b61271083106114ac57612710830492506004015b606483106114be576064830492506002015b600a831061033f5760010192915050565b600060016114dc846106ed565b6114e69190611cad565b600083815260076020526040902054909150808214611539576001600160a01b03841660009081526006602090815260408083208584528252808320548484528184208190558352600790915290208190555b5060009182526007602090815260408084208490556001600160a01b039094168352600681528383209183525290812055565b60085460009061157e90600190611cad565b600083815260096020526040812054600880549394509092849081106115a6576115a6611a69565b9060005260206000200154905080600883815481106115c7576115c7611a69565b60009182526020808320909101929092558281526009909152604080822084905585825281205560088054806115ff576115ff611cce565b6001900381819060005260206000200160009055905550505050565b6000611626836106ed565b6001600160a01b039093166000908152600660209081526040808320868452825280832085905593825260079052919091209190915550565b6001600160e01b031981168114610ad957600080fd5b60006020828403121561168757600080fd5b81356108aa8161165f565b60005b838110156116ad578181015183820152602001611695565b50506000910152565b600081518084526116ce816020860160208601611692565b601f01601f19169290920160200192915050565b6020815260006108aa60208301846116b6565b60006020828403121561170757600080fd5b5035919050565b80356001600160a01b038116811461172557600080fd5b919050565b6000806040838503121561173d57600080fd5b6117468361170e565b946020939093013593505050565b60008060006060848603121561176957600080fd5b6117728461170e565b92506117806020850161170e565b9150604084013590509250925092565b6000602082840312156117a257600080fd5b6108aa8261170e565b634e487b7160e01b600052604160045260246000fd5b600067ffffffffffffffff808411156117dc576117dc6117ab565b604051601f8501601f19908116603f01168101908282118183101715611804576118046117ab565b8160405280935085815286868601111561181d57600080fd5b858560208301376000602087830101525050509392505050565b600082601f83011261184857600080fd5b6108aa838335602085016117c1565b6000806000806080858703121561186d57600080fd5b6118768561170e565b935060208501359250604085013567ffffffffffffffff8082111561189a57600080fd5b6118a688838901611837565b935060608701359150808211156118bc57600080fd5b506118c987828801611837565b91505092959194509250565b600080604083850312156118e857600080fd5b6118f18361170e565b91506020830135801515811461190657600080fd5b809150509250929050565b6000806000806080858703121561192757600080fd5b6119308561170e565b935061193e6020860161170e565b925060408501359150606085013567ffffffffffffffff81111561196157600080fd5b8501601f8101871361197257600080fd5b6118c9878235602084016117c1565b60408152600061199460408301856116b6565b82810360208401526119a681856116b6565b95945050505050565b600080604083850312156119c257600080fd5b6119cb8361170e565b91506119d96020840161170e565b90509250929050565b600181811c908216806119f657607f821691505b602082108103611a1657634e487b7160e01b600052602260045260246000fd5b50919050565b6020808252602d908201527f4552433732313a2063616c6c6572206973206e6f7420746f6b656e206f776e6560408201526c1c881bdc88185c1c1c9bdd9959609a1b606082015260800190565b634e487b7160e01b600052603260045260246000fd5b601f82111561051357600081815260208120601f850160051c81016020861015611aa65750805b601f850160051c820191505b81811015611ac557828155600101611ab2565b505050505050565b815167ffffffffffffffff811115611ae757611ae76117ab565b611afb81611af584546119e2565b84611a7f565b602080601f831160018114611b305760008415611b185750858301515b600019600386901b1c1916600185901b178555611ac5565b600085815260208120601f198616915b82811015611b5f57888601518255948401946001909101908401611b40565b5085821015611b7d5787850151600019600388901b60f8161c191681555b5050505050600190811b01905550565b60008351611b9f818460208801611692565b835190830190611bb3818360208801611692565b01949350505050565b60208082526025908201527f4552433732313a207472616e736665722066726f6d20696e636f72726563742060408201526437bbb732b960d91b606082015260800190565b60208082526032908201527f4552433732313a207472616e7366657220746f206e6f6e20455243373231526560408201527131b2b4bb32b91034b6b83632b6b2b73a32b960711b606082015260800190565b6001600160a01b0385811682528416602082015260408101839052608060608201819052600090611c86908301846116b6565b9695505050505050565b600060208284031215611ca257600080fd5b81516108aa8161165f565b8181038181111561033f57634e487b7160e01b600052601160045260246000fd5b634e487b7160e01b600052603160045260246000fdfea26469706673582212208c3bc2a1a047344c38b9b9711e276b43c462df69cb57315c9a3e7e038e83d0db64736f6c63430008130033",
    "sourcePath": "c:/Users/pc one/OneDrive/Escritorio/nft/file.sol",
    "compiler": {
        "name": "solc",
        "version": "0.8.19+commit.7dd6d404"
    },
    "functionHashes": {
        "approve(address,uint256)": "095ea7b3",
        "balanceOf(address)": "70a08231",
        "getApproved(uint256)": "081812fc",
        "getNFTInfo(uint256)": "d188929f",
        "isApprovedForAll(address,address)": "e985e9c5",
        "mintNFT(address,uint256,string,string)": "9d615ae5",
        "name()": "06fdde03",
        "owner()": "8da5cb5b",
        "ownerOf(uint256)": "6352211e",
        "renounceOwnership()": "715018a6",
        "safeTransferFrom(address,address,uint256)": "42842e0e",
        "safeTransferFrom(address,address,uint256,bytes)": "b88d4fde",
        "setApprovalForAll(address,bool)": "a22cb465",
        "supportsInterface(bytes4)": "01ffc9a7",
        "symbol()": "95d89b41",
        "tokenByIndex(uint256)": "4f6ccce7",
        "tokenOfOwnerByIndex(address,uint256)": "2f745c59",
        "tokenURI(uint256)": "c87b56dd",
        "totalSupply()": "18160ddd",
        "transferFrom(address,address,uint256)": "23b872dd",
        "transferOwnership(address)": "f2fde38b"
    },
    "gasEstimates": {
        "creation": {
            "codeDepositCost": "1490000",
            "executionCost": "infinite",
            "totalCost": "infinite"
        },
        "external": {
            "approve(address,uint256)": "infinite",
            "balanceOf(address)": "2612",
            "getApproved(uint256)": "4792",
            "getNFTInfo(uint256)": "infinite",
            "isApprovedForAll(address,address)": "infinite",
            "mintNFT(address,uint256,string,string)": "infinite",
            "name()": "infinite",
            "owner()": "2398",
            "ownerOf(uint256)": "2649",
            "renounceOwnership()": "infinite",
            "safeTransferFrom(address,address,uint256)": "infinite",
            "safeTransferFrom(address,address,uint256,bytes)": "infinite",
            "setApprovalForAll(address,bool)": "26705",
            "supportsInterface(bytes4)": "infinite",
            "symbol()": "infinite",
            "tokenByIndex(uint256)": "6804",
            "tokenOfOwnerByIndex(address,uint256)": "4975",
            "tokenURI(uint256)": "infinite",
            "totalSupply()": "2393",
            "transferFrom(address,address,uint256)": "infinite",
            "transferOwnership(address)": "28468"
        }
    }
}