{
  "contractName": "MyNFT",
  "abi": [
    {
      "inputs": [],
      "stateMutability": "nonpayable",
      "type": "constructor"
    },
    {
      "anonymous": false,
      "inputs": [
        {
          "indexed": true,
          "internalType": "address",
          "name": "owner",
          "type": "address"
        },
        {
          "indexed": true,
          "internalType": "address",
          "name": "approved",
          "type": "address"
        },
        {
          "indexed": true,
          "internalType": "uint256",
          "name": "tokenId",
          "type": "uint256"
        }
      ],
      "name": "Approval",
      "type": "event"
    },
    {
      "anonymous": false,
      "inputs": [
        {
          "indexed": true,
          "internalType": "address",
          "name": "owner",
          "type": "address"
        },
        {
          "indexed": true,
          "internalType": "address",
          "name": "operator",
          "type": "address"
        },
        {
          "indexed": false,
          "internalType": "bool",
          "name": "approved",
          "type": "bool"
        }
      ],
      "name": "ApprovalForAll",
      "type": "event"
    },
    {
      "anonymous": false,
      "inputs": [
        {
          "indexed": true,
          "internalType": "address",
          "name": "previousOwner",
          "type": "address"
        },
        {
          "indexed": true,
          "internalType": "address",
          "name": "newOwner",
          "type": "address"
        }
      ],
      "name": "OwnershipTransferred",
      "type": "event"
    },
    {
      "anonymous": false,
      "inputs": [
        {
          "indexed": true,
          "internalType": "address",
          "name": "from",
          "type": "address"
        },
        {
          "indexed": true,
          "internalType": "address",
          "name": "to",
          "type": "address"
        },
        {
          "indexed": true,
          "internalType": "uint256",
          "name": "tokenId",
          "type": "uint256"
        }
      ],
      "name": "Transfer",
      "type": "event"
    },
    {
      "inputs": [
        {
          "internalType": "address",
          "name": "to",
          "type": "address"
        },
        {
          "internalType": "uint256",
          "name": "tokenId",
          "type": "uint256"
        }
      ],
      "name": "approve",
      "outputs": [],
      "stateMutability": "nonpayable",
      "type": "function"
    },
    {
      "inputs": [
        {
          "internalType": "address",
          "name": "owner",
          "type": "address"
        }
      ],
      "name": "balanceOf",
      "outputs": [
        {
          "internalType": "uint256",
          "name": "",
          "type": "uint256"
        }
      ],
      "stateMutability": "view",
      "type": "function"
    },
    {
      "inputs": [
        {
          "internalType": "uint256",
          "name": "tokenId",
          "type": "uint256"
        }
      ],
      "name": "getApproved",
      "outputs": [
        {
          "internalType": "address",
          "name": "",
          "type": "address"
        }
      ],
      "stateMutability": "view",
      "type": "function"
    },
    {
      "inputs": [
        {
          "internalType": "address",
          "name": "owner",
          "type": "address"
        },
        {
          "internalType": "address",
          "name": "operator",
          "type": "address"
        }
      ],
      "name": "isApprovedForAll",
      "outputs": [
        {
          "internalType": "bool",
          "name": "",
          "type": "bool"
        }
      ],
      "stateMutability": "view",
      "type": "function"
    },
    {
      "inputs": [],
      "name": "name",
      "outputs": [
        {
          "internalType": "string",
          "name": "",
          "type": "string"
        }
      ],
      "stateMutability": "view",
      "type": "function"
    },
    {
      "inputs": [],
      "name": "owner",
      "outputs": [
        {
          "internalType": "address",
          "name": "",
          "type": "address"
        }
      ],
      "stateMutability": "view",
      "type": "function"
    },
    {
      "inputs": [
        {
          "internalType": "uint256",
          "name": "tokenId",
          "type": "uint256"
        }
      ],
      "name": "ownerOf",
      "outputs": [
        {
          "internalType": "address",
          "name": "",
          "type": "address"
        }
      ],
      "stateMutability": "view",
      "type": "function"
    },
    {
      "inputs": [],
      "name": "renounceOwnership",
      "outputs": [],
      "stateMutability": "nonpayable",
      "type": "function"
    },
    {
      "inputs": [
        {
          "internalType": "address",
          "name": "from",
          "type": "address"
        },
        {
          "internalType": "address",
          "name": "to",
          "type": "address"
        },
        {
          "internalType": "uint256",
          "name": "tokenId",
          "type": "uint256"
        }
      ],
      "name": "safeTransferFrom",
      "outputs": [],
      "stateMutability": "nonpayable",
      "type": "function"
    },
    {
      "inputs": [
        {
          "internalType": "address",
          "name": "from",
          "type": "address"
        },
        {
          "internalType": "address",
          "name": "to",
          "type": "address"
        },
        {
          "internalType": "uint256",
          "name": "tokenId",
          "type": "uint256"
        },
        {
          "internalType": "bytes",
          "name": "data",
          "type": "bytes"
        }
      ],
      "name": "safeTransferFrom",
      "outputs": [],
      "stateMutability": "nonpayable",
      "type": "function"
    },
    {
      "inputs": [
        {
          "internalType": "address",
          "name": "operator",
          "type": "address"
        },
        {
          "internalType": "bool",
          "name": "approved",
          "type": "bool"
        }
      ],
      "name": "setApprovalForAll",
      "outputs": [],
      "stateMutability": "nonpayable",
      "type": "function"
    },
    {
      "inputs": [
        {
          "internalType": "bytes4",
          "name": "interfaceId",
          "type": "bytes4"
        }
      ],
      "name": "supportsInterface",
      "outputs": [
        {
          "internalType": "bool",
          "name": "",
          "type": "bool"
        }
      ],
      "stateMutability": "view",
      "type": "function"
    },
    {
      "inputs": [],
      "name": "symbol",
      "outputs": [
        {
          "internalType": "string",
          "name": "",
          "type": "string"
        }
      ],
      "stateMutability": "view",
      "type": "function"
    },
    {
      "inputs": [
        {
          "internalType": "uint256",
          "name": "index",
          "type": "uint256"
        }
      ],
      "name": "tokenByIndex",
      "outputs": [
        {
          "internalType": "uint256",
          "name": "",
          "type": "uint256"
        }
      ],
      "stateMutability": "view",
      "type": "function"
    },
    {
      "inputs": [
        {
          "internalType": "address",
          "name": "owner",
          "type": "address"
        },
        {
          "internalType": "uint256",
          "name": "index",
          "type": "uint256"
        }
      ],
      "name": "tokenOfOwnerByIndex",
      "outputs": [
        {
          "internalType": "uint256",
          "name": "",
          "type": "uint256"
        }
      ],
      "stateMutability": "view",
      "type": "function"
    },
    {
      "inputs": [
        {
          "internalType": "uint256",
          "name": "tokenId",
          "type": "uint256"
        }
      ],
      "name": "tokenURI",
      "outputs": [
        {
          "internalType": "string",
          "name": "",
          "type": "string"
        }
      ],
      "stateMutability": "view",
      "type": "function"
    },
    {
      "inputs": [],
      "name": "totalSupply",
      "outputs": [
        {
          "internalType": "uint256",
          "name": "",
          "type": "uint256"
        }
      ],
      "stateMutability": "view",
      "type": "function"
    },
    {
      "inputs": [
        {
          "internalType": "address",
          "name": "from",
          "type": "address"
        },
        {
          "internalType": "address",
          "name": "to",
          "type": "address"
        },
        {
          "internalType": "uint256",
          "name": "tokenId",
          "type": "uint256"
        }
      ],
      "name": "transferFrom",
      "outputs": [],
      "stateMutability": "nonpayable",
      "type": "function"
    },
    {
      "inputs": [
        {
          "internalType": "address",
          "name": "newOwner",
          "type": "address"
        }
      ],
      "name": "transferOwnership",
      "outputs": [],
      "stateMutability": "nonpayable",
      "type": "function"
    },
    {
      "inputs": [
        {
          "internalType": "address",
          "name": "recipient",
          "type": "address"
        },
        {
          "internalType": "uint256",
          "name": "tokenId",
          "type": "uint256"
        },
        {
          "internalType": "string",
          "name": "name",
          "type": "string"
        },
        {
          "internalType": "string",
          "name": "description",
          "type": "string"
        }
      ],
      "name": "mintNFT",
      "outputs": [],
      "stateMutability": "nonpayable",
      "type": "function"
    },
    {
      "inputs": [
        {
          "internalType": "uint256",
          "name": "tokenId",
          "type": "uint256"
        }
      ],
      "name": "getNFTInfo",
      "outputs": [
        {
          "internalType": "string",
          "name": "name",
          "type": "string"
        },
        {
          "internalType": "string",
          "name": "description",
          "type": "string"
        }
      ],
      "stateMutability": "view",
      "type": "function"
    }
  ],
  "bytecode": "0x608060405234801562000010575f80fd5b506040518060400160405280600581526020017f4d794e46540000000000000000000000000000000000000000000000000000008152506040518060400160405280600481526020017f4d4e465400000000000000000000000000000000000000000000000000000000815250815f90816200008d9190620003f6565b5080600190816200009f9190620003f6565b505050620000c2620000b6620000c860201b60201c565b620000cf60201b60201c565b620004da565b5f33905090565b5f600a5f9054906101000a900473ffffffffffffffffffffffffffffffffffffffff16905081600a5f6101000a81548173ffffffffffffffffffffffffffffffffffffffff021916908373ffffffffffffffffffffffffffffffffffffffff1602179055508173ffffffffffffffffffffffffffffffffffffffff168173ffffffffffffffffffffffffffffffffffffffff167f8be0079c531659141344cd1fd0a4f28419497f9722a3daafe3b4186f6b6457e060405160405180910390a35050565b5f81519050919050565b7f4e487b71000000000000000000000000000000000000000000000000000000005f52604160045260245ffd5b7f4e487b71000000000000000000000000000000000000000000000000000000005f52602260045260245ffd5b5f60028204905060018216806200020e57607f821691505b602082108103620002245762000223620001c9565b5b50919050565b5f819050815f5260205f209050919050565b5f6020601f8301049050919050565b5f82821b905092915050565b5f60088302620002887fffffffffffffffffffffffffffffffffffffffffffffffffffffffffffffffff826200024b565b6200029486836200024b565b95508019841693508086168417925050509392505050565b5f819050919050565b5f819050919050565b5f620002de620002d8620002d284620002ac565b620002b5565b620002ac565b9050919050565b5f819050919050565b620002f983620002be565b620003116200030882620002e5565b84845462000257565b825550505050565b5f90565b6200032762000319565b62000334818484620002ee565b505050565b5b818110156200035b576200034f5f826200031d565b6001810190506200033a565b5050565b601f821115620003aa5762000374816200022a565b6200037f846200023c565b810160208510156200038f578190505b620003a76200039e856200023c565b83018262000339565b50505b505050565b5f82821c905092915050565b5f620003cc5f1984600802620003af565b1980831691505092915050565b5f620003e68383620003bb565b9150826002028217905092915050565b620004018262000192565b67ffffffffffffffff8111156200041d576200041c6200019c565b5b620004298254620001f6565b620004368282856200035f565b5f60209050601f8311600181146200046c575f841562000457578287015190505b620004638582620003d9565b865550620004d2565b601f1984166200047c866200022a565b5f5b82811015620004a5578489015182556001820191506020850194506020810190506200047e565b86831015620004c55784890151620004c1601f891682620003bb565b8355505b6001600288020188555050505b505050505050565b61362880620004e85f395ff3fe608060405234801561000f575f80fd5b5060043610610135575f3560e01c806370a08231116100b6578063a22cb4651161007a578063a22cb4651461034b578063b88d4fde14610367578063c87b56dd14610383578063d188929f146103b3578063e985e9c5146103e4578063f2fde38b1461041457610135565b806370a08231146102b9578063715018a6146102e95780638da5cb5b146102f357806395d89b41146103115780639d615ae51461032f57610135565b806323b872dd116100fd57806323b872dd146101f15780632f745c591461020d57806342842e0e1461023d5780634f6ccce7146102595780636352211e1461028957610135565b806301ffc9a71461013957806306fdde0314610169578063081812fc14610187578063095ea7b3146101b757806318160ddd146101d3575b5f80fd5b610153600480360381019061014e91906121f6565b610430565b604051610160919061223b565b60405180910390f35b6101716104a9565b60405161017e91906122de565b60405180910390f35b6101a1600480360381019061019c9190612331565b610538565b6040516101ae919061239b565b60405180910390f35b6101d160048036038101906101cc91906123de565b61057a565b005b6101db610690565b6040516101e8919061242b565b60405180910390f35b61020b60048036038101906102069190612444565b61069c565b005b610227600480360381019061022291906123de565b6106fc565b604051610234919061242b565b60405180910390f35b61025760048036038101906102529190612444565b61079c565b005b610273600480360381019061026e9190612331565b6107bb565b604051610280919061242b565b60405180910390f35b6102a3600480360381019061029e9190612331565b610829565b6040516102b0919061239b565b60405180910390f35b6102d360048036038101906102ce9190612494565b6108ad565b6040516102e0919061242b565b60405180910390f35b6102f1610961565b005b6102fb610974565b604051610308919061239b565b60405180910390f35b61031961099c565b60405161032691906122de565b60405180910390f35b610349600480360381019061034491906125eb565b610a2c565b005b610365600480360381019061036091906126b1565b610a97565b005b610381600480360381019061037c919061278d565b610aad565b005b61039d60048036038101906103989190612331565b610b0f565b6040516103aa91906122de565b60405180910390f35b6103cd60048036038101906103c89190612331565b610b74565b6040516103db92919061280d565b60405180910390f35b6103fe60048036038101906103f99190612842565b610d10565b60405161040b919061223b565b60405180910390f35b61042e60048036038101906104299190612494565b610d9e565b005b5f7f780e9d63000000000000000000000000000000000000000000000000000000007bffffffffffffffffffffffffffffffffffffffffffffffffffffffff1916827bffffffffffffffffffffffffffffffffffffffffffffffffffffffff191614806104a257506104a182610e20565b5b9050919050565b60605f80546104b7906128ad565b80601f01602080910402602001604051908101604052809291908181526020018280546104e3906128ad565b801561052e5780601f106105055761010080835404028352916020019161052e565b820191905f5260205f20905b81548152906001019060200180831161051157829003601f168201915b5050505050905090565b5f61054282610f01565b60045f8381526020019081526020015f205f9054906101000a900473ffffffffffffffffffffffffffffffffffffffff169050919050565b5f61058482610829565b90508073ffffffffffffffffffffffffffffffffffffffff168373ffffffffffffffffffffffffffffffffffffffff16036105f4576040517f08c379a00000000000000000000000000000000000000000000000000000000081526004016105eb9061294d565b60405180910390fd5b8073ffffffffffffffffffffffffffffffffffffffff16610613610f4c565b73ffffffffffffffffffffffffffffffffffffffff16148061064257506106418161063c610f4c565b610d10565b5b610681576040517f08c379a0000000000000000000000000000000000000000000000000000000008152600401610678906129db565b60405180910390fd5b61068b8383610f53565b505050565b5f600880549050905090565b6106ad6106a7610f4c565b82611009565b6106ec576040517f08c379a00000000000000000000000000000000000000000000000000000000081526004016106e390612a69565b60405180910390fd5b6106f783838361109d565b505050565b5f610706836108ad565b8210610747576040517f08c379a000000000000000000000000000000000000000000000000000000000815260040161073e90612af7565b60405180910390fd5b60065f8473ffffffffffffffffffffffffffffffffffffffff1673ffffffffffffffffffffffffffffffffffffffff1681526020019081526020015f205f8381526020019081526020015f2054905092915050565b6107b683838360405180602001604052805f815250610aad565b505050565b5f6107c4610690565b8210610805576040517f08c379a00000000000000000000000000000000000000000000000000000000081526004016107fc90612b85565b60405180910390fd5b6008828154811061081957610818612ba3565b5b905f5260205f2001549050919050565b5f8061083483611389565b90505f73ffffffffffffffffffffffffffffffffffffffff168173ffffffffffffffffffffffffffffffffffffffff16036108a4576040517f08c379a000000000000000000000000000000000000000000000000000000000815260040161089b90612c1a565b60405180910390fd5b80915050919050565b5f8073ffffffffffffffffffffffffffffffffffffffff168273ffffffffffffffffffffffffffffffffffffffff160361091c576040517f08c379a000000000000000000000000000000000000000000000000000000000815260040161091390612ca8565b60405180910390fd5b60035f8373ffffffffffffffffffffffffffffffffffffffff1673ffffffffffffffffffffffffffffffffffffffff1681526020019081526020015f20549050919050565b6109696113c2565b6109725f611440565b565b5f600a5f9054906101000a900473ffffffffffffffffffffffffffffffffffffffff16905090565b6060600180546109ab906128ad565b80601f01602080910402602001604051908101604052809291908181526020018280546109d7906128ad565b8015610a225780601f106109f957610100808354040283529160200191610a22565b820191905f5260205f20905b815481529060010190602001808311610a0557829003601f168201915b5050505050905090565b610a346113c2565b610a3e8484611503565b604051806040016040528083815260200182815250600b5f8581526020019081526020015f205f820151815f019081610a779190612e63565b506020820151816001019081610a8d9190612e63565b5090505050505050565b610aa9610aa2610f4c565b8383611716565b5050565b610abe610ab8610f4c565b83611009565b610afd576040517f08c379a0000000000000000000000000000000000000000000000000000000008152600401610af490612a69565b60405180910390fd5b610b098484848461187d565b50505050565b6060610b1a82610f01565b5f610b236118d9565b90505f815111610b415760405180602001604052805f815250610b6c565b80610b4b846118ef565b604051602001610b5c929190612f6c565b6040516020818303038152906040525b915050919050565b606080610b80836119b9565b610bbf576040517f08c379a0000000000000000000000000000000000000000000000000000000008152600401610bb690612fd9565b60405180910390fd5b5f600b5f8581526020019081526020015f206040518060400160405290815f82018054610beb906128ad565b80601f0160208091040260200160405190810160405280929190818152602001828054610c17906128ad565b8015610c625780601f10610c3957610100808354040283529160200191610c62565b820191905f5260205f20905b815481529060010190602001808311610c4557829003601f168201915b50505050508152602001600182018054610c7b906128ad565b80601f0160208091040260200160405190810160405280929190818152602001828054610ca7906128ad565b8015610cf25780601f10610cc957610100808354040283529160200191610cf2565b820191905f5260205f20905b815481529060010190602001808311610cd557829003601f168201915b5050505050815250509050805f015181602001519250925050915091565b5f60055f8473ffffffffffffffffffffffffffffffffffffffff1673ffffffffffffffffffffffffffffffffffffffff1681526020019081526020015f205f8373ffffffffffffffffffffffffffffffffffffffff1673ffffffffffffffffffffffffffffffffffffffff1681526020019081526020015f205f9054906101000a900460ff16905092915050565b610da66113c2565b5f73ffffffffffffffffffffffffffffffffffffffff168173ffffffffffffffffffffffffffffffffffffffff1603610e14576040517f08c379a0000000000000000000000000000000000000000000000000000000008152600401610e0b90613067565b60405180910390fd5b610e1d81611440565b50565b5f7f80ac58cd000000000000000000000000000000000000000000000000000000007bffffffffffffffffffffffffffffffffffffffffffffffffffffffff1916827bffffffffffffffffffffffffffffffffffffffffffffffffffffffff19161480610eea57507f5b5e139f000000000000000000000000000000000000000000000000000000007bffffffffffffffffffffffffffffffffffffffffffffffffffffffff1916827bffffffffffffffffffffffffffffffffffffffffffffffffffffffff1916145b80610efa5750610ef9826119f9565b5b9050919050565b610f0a816119b9565b610f49576040517f08c379a0000000000000000000000000000000000000000000000000000000008152600401610f4090612c1a565b60405180910390fd5b50565b5f33905090565b8160045f8381526020019081526020015f205f6101000a81548173ffffffffffffffffffffffffffffffffffffffff021916908373ffffffffffffffffffffffffffffffffffffffff160217905550808273ffffffffffffffffffffffffffffffffffffffff16610fc383610829565b73ffffffffffffffffffffffffffffffffffffffff167f8c5be1e5ebec7d5bd14f71427d1e84f3dd0314c0f7b2291e5b200ac8c7c3b92560405160405180910390a45050565b5f8061101483610829565b90508073ffffffffffffffffffffffffffffffffffffffff168473ffffffffffffffffffffffffffffffffffffffff16148061105657506110558185610d10565b5b8061109457508373ffffffffffffffffffffffffffffffffffffffff1661107c84610538565b73ffffffffffffffffffffffffffffffffffffffff16145b91505092915050565b8273ffffffffffffffffffffffffffffffffffffffff166110bd82610829565b73ffffffffffffffffffffffffffffffffffffffff1614611113576040517f08c379a000000000000000000000000000000000000000000000000000000000815260040161110a906130f5565b60405180910390fd5b5f73ffffffffffffffffffffffffffffffffffffffff168273ffffffffffffffffffffffffffffffffffffffff1603611181576040517f08c379a000000000000000000000000000000000000000000000000000000000815260040161117890613183565b60405180910390fd5b61118e8383836001611a62565b8273ffffffffffffffffffffffffffffffffffffffff166111ae82610829565b73ffffffffffffffffffffffffffffffffffffffff1614611204576040517f08c379a00000000000000000000000000000000000000000000000000000000081526004016111fb906130f5565b60405180910390fd5b60045f8281526020019081526020015f205f6101000a81549073ffffffffffffffffffffffffffffffffffffffff0219169055600160035f8573ffffffffffffffffffffffffffffffffffffffff1673ffffffffffffffffffffffffffffffffffffffff1681526020019081526020015f205f8282540392505081905550600160035f8473ffffffffffffffffffffffffffffffffffffffff1673ffffffffffffffffffffffffffffffffffffffff1681526020019081526020015f205f82825401925050819055508160025f8381526020019081526020015f205f6101000a81548173ffffffffffffffffffffffffffffffffffffffff021916908373ffffffffffffffffffffffffffffffffffffffff160217905550808273ffffffffffffffffffffffffffffffffffffffff168473ffffffffffffffffffffffffffffffffffffffff167fddf252ad1be2c89b69c2b068fc378daa952ba7f163c4a11628f55a4df523b3ef60405160405180910390a46113848383836001611bbd565b505050565b5f60025f8381526020019081526020015f205f9054906101000a900473ffffffffffffffffffffffffffffffffffffffff169050919050565b6113ca610f4c565b73ffffffffffffffffffffffffffffffffffffffff166113e8610974565b73ffffffffffffffffffffffffffffffffffffffff161461143e576040517f08c379a0000000000000000000000000000000000000000000000000000000008152600401611435906131eb565b60405180910390fd5b565b5f600a5f9054906101000a900473ffffffffffffffffffffffffffffffffffffffff16905081600a5f6101000a81548173ffffffffffffffffffffffffffffffffffffffff021916908373ffffffffffffffffffffffffffffffffffffffff1602179055508173ffffffffffffffffffffffffffffffffffffffff168173ffffffffffffffffffffffffffffffffffffffff167f8be0079c531659141344cd1fd0a4f28419497f9722a3daafe3b4186f6b6457e060405160405180910390a35050565b5f73ffffffffffffffffffffffffffffffffffffffff168273ffffffffffffffffffffffffffffffffffffffff1603611571576040517f08c379a000000000000000000000000000000000000000000000000000000000815260040161156890613253565b60405180910390fd5b61157a816119b9565b156115ba576040517f08c379a00000000000000000000000000000000000000000000000000000000081526004016115b1906132bb565b60405180910390fd5b6115c75f83836001611a62565b6115d0816119b9565b15611610576040517f08c379a0000000000000000000000000000000000000000000000000000000008152600401611607906132bb565b60405180910390fd5b600160035f8473ffffffffffffffffffffffffffffffffffffffff1673ffffffffffffffffffffffffffffffffffffffff1681526020019081526020015f205f82825401925050819055508160025f8381526020019081526020015f205f6101000a81548173ffffffffffffffffffffffffffffffffffffffff021916908373ffffffffffffffffffffffffffffffffffffffff160217905550808273ffffffffffffffffffffffffffffffffffffffff165f73ffffffffffffffffffffffffffffffffffffffff167fddf252ad1be2c89b69c2b068fc378daa952ba7f163c4a11628f55a4df523b3ef60405160405180910390a46117125f83836001611bbd565b5050565b8173ffffffffffffffffffffffffffffffffffffffff168373ffffffffffffffffffffffffffffffffffffffff1603611784576040517f08c379a000000000000000000000000000000000000000000000000000000000815260040161177b90613323565b60405180910390fd5b8060055f8573ffffffffffffffffffffffffffffffffffffffff1673ffffffffffffffffffffffffffffffffffffffff1681526020019081526020015f205f8473ffffffffffffffffffffffffffffffffffffffff1673ffffffffffffffffffffffffffffffffffffffff1681526020019081526020015f205f6101000a81548160ff0219169083151502179055508173ffffffffffffffffffffffffffffffffffffffff168373ffffffffffffffffffffffffffffffffffffffff167f17307eab39ab6107e8899845ad3d59bd9653f200f220920489ca2b5937696c3183604051611870919061223b565b60405180910390a3505050565b61188884848461109d565b61189484848484611bc3565b6118d3576040517f08c379a00000000000000000000000000000000000000000000000000000000081526004016118ca906133b1565b60405180910390fd5b50505050565b606060405180602001604052805f815250905090565b60605f60016118fd84611d45565b0190505f8167ffffffffffffffff81111561191b5761191a6124c7565b5b6040519080825280601f01601f19166020018201604052801561194d5781602001600182028036833780820191505090505b5090505f82602001820190505b6001156119ae578080600190039150507f3031323334353637383961626364656600000000000000000000000000000000600a86061a8153600a85816119a3576119a26133cf565b5b0494505f850361195a575b819350505050919050565b5f8073ffffffffffffffffffffffffffffffffffffffff166119da83611389565b73ffffffffffffffffffffffffffffffffffffffff1614159050919050565b5f7f01ffc9a7000000000000000000000000000000000000000000000000000000007bffffffffffffffffffffffffffffffffffffffffffffffffffffffff1916827bffffffffffffffffffffffffffffffffffffffffffffffffffffffff1916149050919050565b611a6e84848484611e96565b6001811115611ab2576040517f08c379a0000000000000000000000000000000000000000000000000000000008152600401611aa99061346c565b60405180910390fd5b5f8290505f73ffffffffffffffffffffffffffffffffffffffff168573ffffffffffffffffffffffffffffffffffffffff1603611af757611af281611e9c565b611b36565b8373ffffffffffffffffffffffffffffffffffffffff168573ffffffffffffffffffffffffffffffffffffffff1614611b3557611b348582611ee0565b5b5b5f73ffffffffffffffffffffffffffffffffffffffff168473ffffffffffffffffffffffffffffffffffffffff1603611b7757611b7281612036565b611bb6565b8473ffffffffffffffffffffffffffffffffffffffff168473ffffffffffffffffffffffffffffffffffffffff1614611bb557611bb484826120f6565b5b5b5050505050565b50505050565b5f611be38473ffffffffffffffffffffffffffffffffffffffff1661216e565b15611d38578373ffffffffffffffffffffffffffffffffffffffff1663150b7a02611c0c610f4c565b8786866040518563ffffffff1660e01b8152600401611c2e94939291906134dc565b6020604051808303815f875af1925050508015611c6957506040513d601f19601f82011682018060405250810190611c66919061353a565b60015b611ce8573d805f8114611c97576040519150601f19603f3d011682016040523d82523d5f602084013e611c9c565b606091505b505f815103611ce0576040517f08c379a0000000000000000000000000000000000000000000000000000000008152600401611cd7906133b1565b60405180910390fd5b805181602001fd5b63150b7a0260e01b7bffffffffffffffffffffffffffffffffffffffffffffffffffffffff1916817bffffffffffffffffffffffffffffffffffffffffffffffffffffffff191614915050611d3d565b600190505b949350505050565b5f805f90507a184f03e93ff9f4daa797ed6e38ed64bf6a1f0100000000000000008310611da1577a184f03e93ff9f4daa797ed6e38ed64bf6a1f0100000000000000008381611d9757611d966133cf565b5b0492506040810190505b6d04ee2d6d415b85acef81000000008310611dde576d04ee2d6d415b85acef81000000008381611dd457611dd36133cf565b5b0492506020810190505b662386f26fc100008310611e0d57662386f26fc100008381611e0357611e026133cf565b5b0492506010810190505b6305f5e1008310611e36576305f5e1008381611e2c57611e2b6133cf565b5b0492506008810190505b6127108310611e5b576127108381611e5157611e506133cf565b5b0492506004810190505b60648310611e7e5760648381611e7457611e736133cf565b5b0492506002810190505b600a8310611e8d576001810190505b80915050919050565b50505050565b60088054905060095f8381526020019081526020015f2081905550600881908060018154018082558091505060019003905f5260205f20015f909190919091505550565b5f6001611eec846108ad565b611ef69190613592565b90505f60075f8481526020019081526020015f20549050818114611fcd575f60065f8673ffffffffffffffffffffffffffffffffffffffff1673ffffffffffffffffffffffffffffffffffffffff1681526020019081526020015f205f8481526020019081526020015f205490508060065f8773ffffffffffffffffffffffffffffffffffffffff1673ffffffffffffffffffffffffffffffffffffffff1681526020019081526020015f205f8481526020019081526020015f20819055508160075f8381526020019081526020015f2081905550505b60075f8481526020019081526020015f205f905560065f8573ffffffffffffffffffffffffffffffffffffffff1673ffffffffffffffffffffffffffffffffffffffff1681526020019081526020015f205f8381526020019081526020015f205f905550505050565b5f60016008805490506120499190613592565b90505f60095f8481526020019081526020015f205490505f6008838154811061207557612074612ba3565b5b905f5260205f2001549050806008838154811061209557612094612ba3565b5b905f5260205f2001819055508160095f8381526020019081526020015f208190555060095f8581526020019081526020015f205f905560088054806120dd576120dc6135c5565b5b600190038181905f5260205f20015f9055905550505050565b5f612100836108ad565b90508160065f8573ffffffffffffffffffffffffffffffffffffffff1673ffffffffffffffffffffffffffffffffffffffff1681526020019081526020015f205f8381526020019081526020015f20819055508060075f8481526020019081526020015f2081905550505050565b5f808273ffffffffffffffffffffffffffffffffffffffff163b119050919050565b5f604051905090565b5f80fd5b5f80fd5b5f7fffffffff0000000000000000000000000000000000000000000000000000000082169050919050565b6121d5816121a1565b81146121df575f80fd5b50565b5f813590506121f0816121cc565b92915050565b5f6020828403121561220b5761220a612199565b5b5f612218848285016121e2565b91505092915050565b5f8115159050919050565b61223581612221565b82525050565b5f60208201905061224e5f83018461222c565b92915050565b5f81519050919050565b5f82825260208201905092915050565b5f5b8381101561228b578082015181840152602081019050612270565b5f8484015250505050565b5f601f19601f8301169050919050565b5f6122b082612254565b6122ba818561225e565b93506122ca81856020860161226e565b6122d381612296565b840191505092915050565b5f6020820190508181035f8301526122f681846122a6565b905092915050565b5f819050919050565b612310816122fe565b811461231a575f80fd5b50565b5f8135905061232b81612307565b92915050565b5f6020828403121561234657612345612199565b5b5f6123538482850161231d565b91505092915050565b5f73ffffffffffffffffffffffffffffffffffffffff82169050919050565b5f6123858261235c565b9050919050565b6123958161237b565b82525050565b5f6020820190506123ae5f83018461238c565b92915050565b6123bd8161237b565b81146123c7575f80fd5b50565b5f813590506123d8816123b4565b92915050565b5f80604083850312156123f4576123f3612199565b5b5f612401858286016123ca565b92505060206124128582860161231d565b9150509250929050565b612425816122fe565b82525050565b5f60208201905061243e5f83018461241c565b92915050565b5f805f6060848603121561245b5761245a612199565b5b5f612468868287016123ca565b9350506020612479868287016123ca565b925050604061248a8682870161231d565b9150509250925092565b5f602082840312156124a9576124a8612199565b5b5f6124b6848285016123ca565b91505092915050565b5f80fd5b5f80fd5b7f4e487b71000000000000000000000000000000000000000000000000000000005f52604160045260245ffd5b6124fd82612296565b810181811067ffffffffffffffff8211171561251c5761251b6124c7565b5b80604052505050565b5f61252e612190565b905061253a82826124f4565b919050565b5f67ffffffffffffffff821115612559576125586124c7565b5b61256282612296565b9050602081019050919050565b828183375f83830152505050565b5f61258f61258a8461253f565b612525565b9050828152602081018484840111156125ab576125aa6124c3565b5b6125b684828561256f565b509392505050565b5f82601f8301126125d2576125d16124bf565b5b81356125e284826020860161257d565b91505092915050565b5f805f806080858703121561260357612602612199565b5b5f612610878288016123ca565b94505060206126218782880161231d565b935050604085013567ffffffffffffffff8111156126425761264161219d565b5b61264e878288016125be565b925050606085013567ffffffffffffffff81111561266f5761266e61219d565b5b61267b878288016125be565b91505092959194509250565b61269081612221565b811461269a575f80fd5b50565b5f813590506126ab81612687565b92915050565b5f80604083850312156126c7576126c6612199565b5b5f6126d4858286016123ca565b92505060206126e58582860161269d565b9150509250929050565b5f67ffffffffffffffff821115612709576127086124c7565b5b61271282612296565b9050602081019050919050565b5f61273161272c846126ef565b612525565b90508281526020810184848401111561274d5761274c6124c3565b5b61275884828561256f565b509392505050565b5f82601f830112612774576127736124bf565b5b813561278484826020860161271f565b91505092915050565b5f805f80608085870312156127a5576127a4612199565b5b5f6127b2878288016123ca565b94505060206127c3878288016123ca565b93505060406127d48782880161231d565b925050606085013567ffffffffffffffff8111156127f5576127f461219d565b5b61280187828801612760565b91505092959194509250565b5f6040820190508181035f83015261282581856122a6565b9050818103602083015261283981846122a6565b90509392505050565b5f806040838503121561285857612857612199565b5b5f612865858286016123ca565b9250506020612876858286016123ca565b9150509250929050565b7f4e487b71000000000000000000000000000000000000000000000000000000005f52602260045260245ffd5b5f60028204905060018216806128c457607f821691505b6020821081036128d7576128d6612880565b5b50919050565b7f4552433732313a20617070726f76616c20746f2063757272656e74206f776e655f8201527f7200000000000000000000000000000000000000000000000000000000000000602082015250565b5f61293760218361225e565b9150612942826128dd565b604082019050919050565b5f6020820190508181035f8301526129648161292b565b9050919050565b7f4552433732313a20617070726f76652063616c6c6572206973206e6f7420746f5f8201527f6b656e206f776e6572206f7220617070726f76656420666f7220616c6c000000602082015250565b5f6129c5603d8361225e565b91506129d08261296b565b604082019050919050565b5f6020820190508181035f8301526129f2816129b9565b9050919050565b7f4552433732313a2063616c6c6572206973206e6f7420746f6b656e206f776e655f8201527f72206f7220617070726f76656400000000000000000000000000000000000000602082015250565b5f612a53602d8361225e565b9150612a5e826129f9565b604082019050919050565b5f6020820190508181035f830152612a8081612a47565b9050919050565b7f455243373231456e756d657261626c653a206f776e657220696e646578206f755f8201527f74206f6620626f756e6473000000000000000000000000000000000000000000602082015250565b5f612ae1602b8361225e565b9150612aec82612a87565b604082019050919050565b5f6020820190508181035f830152612b0e81612ad5565b9050919050565b7f455243373231456e756d657261626c653a20676c6f62616c20696e646578206f5f8201527f7574206f6620626f756e64730000000000000000000000000000000000000000602082015250565b5f612b6f602c8361225e565b9150612b7a82612b15565b604082019050919050565b5f6020820190508181035f830152612b9c81612b63565b9050919050565b7f4e487b71000000000000000000000000000000000000000000000000000000005f52603260045260245ffd5b7f4552433732313a20696e76616c696420746f6b656e20494400000000000000005f82015250565b5f612c0460188361225e565b9150612c0f82612bd0565b602082019050919050565b5f6020820190508181035f830152612c3181612bf8565b9050919050565b7f4552433732313a2061646472657373207a65726f206973206e6f7420612076615f8201527f6c6964206f776e65720000000000000000000000000000000000000000000000602082015250565b5f612c9260298361225e565b9150612c9d82612c38565b604082019050919050565b5f6020820190508181035f830152612cbf81612c86565b9050919050565b5f819050815f5260205f209050919050565b5f6020601f8301049050919050565b5f82821b905092915050565b5f60088302612d227fffffffffffffffffffffffffffffffffffffffffffffffffffffffffffffffff82612ce7565b612d2c8683612ce7565b95508019841693508086168417925050509392505050565b5f819050919050565b5f612d67612d62612d5d846122fe565b612d44565b6122fe565b9050919050565b5f819050919050565b612d8083612d4d565b612d94612d8c82612d6e565b848454612cf3565b825550505050565b5f90565b612da8612d9c565b612db3818484612d77565b505050565b5b81811015612dd657612dcb5f82612da0565b600181019050612db9565b5050565b601f821115612e1b57612dec81612cc6565b612df584612cd8565b81016020851015612e04578190505b612e18612e1085612cd8565b830182612db8565b50505b505050565b5f82821c905092915050565b5f612e3b5f1984600802612e20565b1980831691505092915050565b5f612e538383612e2c565b9150826002028217905092915050565b612e6c82612254565b67ffffffffffffffff811115612e8557612e846124c7565b5b612e8f82546128ad565b612e9a828285612dda565b5f60209050601f831160018114612ecb575f8415612eb9578287015190505b612ec38582612e48565b865550612f2a565b601f198416612ed986612cc6565b5f5b82811015612f0057848901518255600182019150602085019450602081019050612edb565b86831015612f1d5784890151612f19601f891682612e2c565b8355505b6001600288020188555050505b505050505050565b5f81905092915050565b5f612f4682612254565b612f508185612f32565b9350612f6081856020860161226e565b80840191505092915050565b5f612f778285612f3c565b9150612f838284612f3c565b91508190509392505050565b7f546f6b656e206e6f2065786973746500000000000000000000000000000000005f82015250565b5f612fc3600f8361225e565b9150612fce82612f8f565b602082019050919050565b5f6020820190508181035f830152612ff081612fb7565b9050919050565b7f4f776e61626c653a206e6577206f776e657220697320746865207a65726f20615f8201527f6464726573730000000000000000000000000000000000000000000000000000602082015250565b5f61305160268361225e565b915061305c82612ff7565b604082019050919050565b5f6020820190508181035f83015261307e81613045565b9050919050565b7f4552433732313a207472616e736665722066726f6d20696e636f7272656374205f8201527f6f776e6572000000000000000000000000000000000000000000000000000000602082015250565b5f6130df60258361225e565b91506130ea82613085565b604082019050919050565b5f6020820190508181035f83015261310c816130d3565b9050919050565b7f4552433732313a207472616e7366657220746f20746865207a65726f206164645f8201527f7265737300000000000000000000000000000000000000000000000000000000602082015250565b5f61316d60248361225e565b915061317882613113565b604082019050919050565b5f6020820190508181035f83015261319a81613161565b9050919050565b7f4f776e61626c653a2063616c6c6572206973206e6f7420746865206f776e65725f82015250565b5f6131d560208361225e565b91506131e0826131a1565b602082019050919050565b5f6020820190508181035f830152613202816131c9565b9050919050565b7f4552433732313a206d696e7420746f20746865207a65726f20616464726573735f82015250565b5f61323d60208361225e565b915061324882613209565b602082019050919050565b5f6020820190508181035f83015261326a81613231565b9050919050565b7f4552433732313a20746f6b656e20616c7265616479206d696e746564000000005f82015250565b5f6132a5601c8361225e565b91506132b082613271565b602082019050919050565b5f6020820190508181035f8301526132d281613299565b9050919050565b7f4552433732313a20617070726f766520746f2063616c6c6572000000000000005f82015250565b5f61330d60198361225e565b9150613318826132d9565b602082019050919050565b5f6020820190508181035f83015261333a81613301565b9050919050565b7f4552433732313a207472616e7366657220746f206e6f6e2045524337323152655f8201527f63656976657220696d706c656d656e7465720000000000000000000000000000602082015250565b5f61339b60328361225e565b91506133a682613341565b604082019050919050565b5f6020820190508181035f8301526133c88161338f565b9050919050565b7f4e487b71000000000000000000000000000000000000000000000000000000005f52601260045260245ffd5b7f455243373231456e756d657261626c653a20636f6e73656375746976652074725f8201527f616e7366657273206e6f7420737570706f727465640000000000000000000000602082015250565b5f61345660358361225e565b9150613461826133fc565b604082019050919050565b5f6020820190508181035f8301526134838161344a565b9050919050565b5f81519050919050565b5f82825260208201905092915050565b5f6134ae8261348a565b6134b88185613494565b93506134c881856020860161226e565b6134d181612296565b840191505092915050565b5f6080820190506134ef5f83018761238c565b6134fc602083018661238c565b613509604083018561241c565b818103606083015261351b81846134a4565b905095945050505050565b5f81519050613534816121cc565b92915050565b5f6020828403121561354f5761354e612199565b5b5f61355c84828501613526565b91505092915050565b7f4e487b71000000000000000000000000000000000000000000000000000000005f52601160045260245ffd5b5f61359c826122fe565b91506135a7836122fe565b92508282039050818111156135bf576135be613565565b5b92915050565b7f4e487b71000000000000000000000000000000000000000000000000000000005f52603160045260245ffdfea264697066735822122059e5f7ba6f322b38abbb224eb9b90cd43c26feb6081c50cb8094ca8e39fb5aa864736f6c63430008150033",
  "immutableReferences": {},
  "source": "// SPDX-License-Identifier: MIT\r\n\r\n// Importar la librera ERC721\r\npragma solidity ^0.8.0;\r\n\r\nimport \"@openzeppelin/contracts/token/ERC721/extensions/ERC721Enumerable.sol\";\r\nimport \"@openzeppelin/contracts/access/Ownable.sol\";\r\n\r\n// Definir un contrato NFT que hereda de ERC721 y Ownable\r\ncontract MyNFT is ERC721Enumerable, Ownable {\r\n    constructor() ERC721(\"MyNFT\", \"MNFT\") {}\r\n\r\n    // Estructura para almacenar informacin del NFT\r\n    struct NFTMetadata {\r\n        string name;\r\n        string description;\r\n    }\r\n\r\n    // Mapeo para asignar cada token a su informacin\r\n    mapping(uint256 => NFTMetadata) private _tokenInfo;\r\n\r\n    // Funcin para crear un nuevo NFT\r\n    function mintNFT(address recipient, uint256 tokenId, string memory name, string memory description)\r\n        public\r\n        onlyOwner\r\n    {\r\n        _mint(recipient, tokenId);\r\n        _tokenInfo[tokenId] = NFTMetadata(name, description);\r\n    }\r\n\r\n    // Funcin para obtener informacin de un NFT\r\n    function getNFTInfo(uint256 tokenId) public view returns (string memory name, string memory description) {\r\n        require(_exists(tokenId), \"Token no existe\");\r\n        NFTMetadata memory info = _tokenInfo[tokenId];\r\n        return (info.name, info.description);\r\n    }\r\n}\r\n",
  "sourcePath": "C:\\Users\\pc one\\OneDrive\\Escritorio\\nft\\contracts\\MyNFT.sol",
  "compiler": {
    "name": "solc",
    "version": "0.8.21+commit.d9974bed.Emscripten.clang"
  },
  "schemaVersion": "3.4.16",
  "updatedAt": "2023-10-05T12:35:51.504Z",
  "devdoc": {
    "events": {
      "Approval(address,address,uint256)": {
        "details": "Emitted when `owner` enables `approved` to manage the `tokenId` token."
      },
      "ApprovalForAll(address,address,bool)": {
        "details": "Emitted when `owner` enables or disables (`approved`) `operator` to manage all of its assets."
      },
      "Transfer(address,address,uint256)": {
        "details": "Emitted when `tokenId` token is transferred from `from` to `to`."
      }
    },
    "kind": "dev",
    "methods": {
      "approve(address,uint256)": {
        "details": "See {IERC721-approve}."
      },
      "balanceOf(address)": {
        "details": "See {IERC721-balanceOf}."
      },
      "getApproved(uint256)": {
        "details": "See {IERC721-getApproved}."
      },
      "isApprovedForAll(address,address)": {
        "details": "See {IERC721-isApprovedForAll}."
      },
      "name()": {
        "details": "See {IERC721Metadata-name}."
      },
      "owner()": {
        "details": "Returns the address of the current owner."
      },
      "ownerOf(uint256)": {
        "details": "See {IERC721-ownerOf}."
      },
      "renounceOwnership()": {
        "details": "Leaves the contract without owner. It will not be possible to call `onlyOwner` functions. Can only be called by the current owner. NOTE: Renouncing ownership will leave the contract without an owner, thereby disabling any functionality that is only available to the owner."
      },
      "safeTransferFrom(address,address,uint256)": {
        "details": "See {IERC721-safeTransferFrom}."
      },
      "safeTransferFrom(address,address,uint256,bytes)": {
        "details": "See {IERC721-safeTransferFrom}."
      },
      "setApprovalForAll(address,bool)": {
        "details": "See {IERC721-setApprovalForAll}."
      },
      "supportsInterface(bytes4)": {
        "details": "See {IERC165-supportsInterface}."
      },
      "symbol()": {
        "details": "See {IERC721Metadata-symbol}."
      },
      "tokenByIndex(uint256)": {
        "details": "See {IERC721Enumerable-tokenByIndex}."
      },
      "tokenOfOwnerByIndex(address,uint256)": {
        "details": "See {IERC721Enumerable-tokenOfOwnerByIndex}."
      },
      "tokenURI(uint256)": {
        "details": "See {IERC721Metadata-tokenURI}."
      },
      "totalSupply()": {
        "details": "See {IERC721Enumerable-totalSupply}."
      },
      "transferFrom(address,address,uint256)": {
        "details": "See {IERC721-transferFrom}."
      },
      "transferOwnership(address)": {
        "details": "Transfers ownership of the contract to a new account (`newOwner`). Can only be called by the current owner."
      }
    },
    "version": 1
  },
  "userdoc": {
    "kind": "user",
    "methods": {},
    "version": 1
  }
}